{
  "contractName": "TwitterContract",
  "abi": [
    {
      "anonymous": false,
      "inputs": [
        {
          "indexed": false,
          "internalType": "address",
          "name": "recipient",
          "type": "address"
        },
        {
          "indexed": false,
          "internalType": "uint256",
          "name": "tweetId",
          "type": "uint256"
        }
      ],
      "name": "AddTweet",
      "type": "event"
    },
    {
      "anonymous": false,
      "inputs": [
        {
          "indexed": false,
          "internalType": "uint256",
          "name": "tweetId",
          "type": "uint256"
        },
        {
          "indexed": false,
          "internalType": "bool",
          "name": "isDeleted",
          "type": "bool"
        }
      ],
      "name": "DeleteTweet",
      "type": "event"
    },
    {
      "inputs": [
        {
          "internalType": "string",
          "name": "tweetText",
          "type": "string"
        },
        {
          "internalType": "string",
          "name": "tweetImage",
          "type": "string"
        }
      ],
      "name": "addTweet",
      "outputs": [],
      "stateMutability": "nonpayable",
      "type": "function"
    },
    {
      "inputs": [],
      "name": "getAllTweets",
      "outputs": [
        {
          "components": [
            {
              "internalType": "uint256",
              "name": "id",
              "type": "uint256"
            },
            {
              "internalType": "address",
              "name": "author",
              "type": "address"
            },
            {
              "internalType": "string",
              "name": "tweetText",
              "type": "string"
            },
            {
              "internalType": "string",
              "name": "tweetImage",
              "type": "string"
            },
            {
              "internalType": "bool",
              "name": "isDeleted",
              "type": "bool"
            }
          ],
          "internalType": "struct TwitterContract.Tweet[]",
          "name": "",
          "type": "tuple[]"
        }
      ],
      "stateMutability": "view",
      "type": "function",
      "constant": true
    },
    {
      "inputs": [],
      "name": "getMyTweets",
      "outputs": [
        {
          "components": [
            {
              "internalType": "uint256",
              "name": "id",
              "type": "uint256"
            },
            {
              "internalType": "address",
              "name": "author",
              "type": "address"
            },
            {
              "internalType": "string",
              "name": "tweetText",
              "type": "string"
            },
            {
              "internalType": "string",
              "name": "tweetImage",
              "type": "string"
            },
            {
              "internalType": "bool",
              "name": "isDeleted",
              "type": "bool"
            }
          ],
          "internalType": "struct TwitterContract.Tweet[]",
          "name": "",
          "type": "tuple[]"
        }
      ],
      "stateMutability": "view",
      "type": "function",
      "constant": true
    },
    {
      "inputs": [
        {
          "internalType": "uint256",
          "name": "tweetId",
          "type": "uint256"
        },
        {
          "internalType": "bool",
          "name": "isDeleted",
          "type": "bool"
        }
      ],
      "name": "deleteTweet",
      "outputs": [],
      "stateMutability": "nonpayable",
      "type": "function"
    }
  ],
  "bytecode": "0x608060405234801561001057600080fd5b506113d9806100206000396000f3fe608060405234801561001057600080fd5b506004361061004c5760003560e01c806353256135146100515780637e75b4081461006f578063aefedbc21461008b578063f0312a37146100a9575b600080fd5b6100596100c5565b6040516100669190610d25565b60405180910390f35b61008960048036038101906100849190610e90565b610438565b005b6100936105db565b6040516100a09190610d25565b60405180910390f35b6100c360048036038101906100be9190610f60565b6109b9565b005b60606000808054905067ffffffffffffffff8111156100e7576100e6610d65565b5b60405190808252806020026020018201604052801561012057816020015b61010d610a9a565b8152602001906001900390816101055790505b5090506000805b60008054905081101561037e57600015156000828154811061014c5761014b610fa0565b5b906000526020600020906005020160040160009054906101000a900460ff1615150361036b576000818154811061018657610185610fa0565b5b90600052602060002090600502016040518060a0016040529081600082015481526020016001820160009054906101000a900473ffffffffffffffffffffffffffffffffffffffff1673ffffffffffffffffffffffffffffffffffffffff1673ffffffffffffffffffffffffffffffffffffffff16815260200160028201805461020f90610ffe565b80601f016020809104026020016040519081016040528092919081815260200182805461023b90610ffe565b80156102885780601f1061025d57610100808354040283529160200191610288565b820191906000526020600020905b81548152906001019060200180831161026b57829003601f168201915b505050505081526020016003820180546102a190610ffe565b80601f01602080910402602001604051908101604052809291908181526020018280546102cd90610ffe565b801561031a5780601f106102ef5761010080835404028352916020019161031a565b820191906000526020600020905b8154815290600101906020018083116102fd57829003601f168201915b505050505081526020016004820160009054906101000a900460ff16151515158152505083838151811061035157610350610fa0565b5b602002602001018190525081806103679061105e565b9250505b80806103769061105e565b915050610127565b5060008167ffffffffffffffff81111561039b5761039a610d65565b5b6040519080825280602002602001820160405280156103d457816020015b6103c1610a9a565b8152602001906001900390816103b95790505b50905060005b8281101561042e578381815181106103f5576103f4610fa0565b5b60200260200101518282815181106104105761040f610fa0565b5b602002602001018190525080806104269061105e565b9150506103da565b5080935050505090565b60008080549050905060006040518060a001604052808381526020013373ffffffffffffffffffffffffffffffffffffffff1681526020018581526020018481526020016000151581525090806001815401808255809150506001900390600052602060002090600502016000909190919091506000820151816000015560208201518160010160006101000a81548173ffffffffffffffffffffffffffffffffffffffff021916908373ffffffffffffffffffffffffffffffffffffffff16021790555060408201518160020190816105129190611252565b5060608201518160030190816105289190611252565b5060808201518160040160006101000a81548160ff0219169083151502179055505050336001600083815260200190815260200160002060006101000a81548173ffffffffffffffffffffffffffffffffffffffff021916908373ffffffffffffffffffffffffffffffffffffffff1602179055507f8b2db9b424f26463510ef5b02c16f2465836b52081b51d2112ec76102053bdea33826040516105ce929190611342565b60405180910390a1505050565b60606000808054905067ffffffffffffffff8111156105fd576105fc610d65565b5b60405190808252806020026020018201604052801561063657816020015b610623610a9a565b81526020019060019003908161061b5790505b5090506000805b6000805490508110156108ff573373ffffffffffffffffffffffffffffffffffffffff166001600083815260200190815260200160002060009054906101000a900473ffffffffffffffffffffffffffffffffffffffff1673ffffffffffffffffffffffffffffffffffffffff161480156106ee575060001515600082815481106106cb576106ca610fa0565b5b906000526020600020906005020160040160009054906101000a900460ff161515145b156108ec576000818154811061070757610706610fa0565b5b90600052602060002090600502016040518060a0016040529081600082015481526020016001820160009054906101000a900473ffffffffffffffffffffffffffffffffffffffff1673ffffffffffffffffffffffffffffffffffffffff1673ffffffffffffffffffffffffffffffffffffffff16815260200160028201805461079090610ffe565b80601f01602080910402602001604051908101604052809291908181526020018280546107bc90610ffe565b80156108095780601f106107de57610100808354040283529160200191610809565b820191906000526020600020905b8154815290600101906020018083116107ec57829003601f168201915b5050505050815260200160038201805461082290610ffe565b80601f016020809104026020016040519081016040528092919081815260200182805461084e90610ffe565b801561089b5780601f106108705761010080835404028352916020019161089b565b820191906000526020600020905b81548152906001019060200180831161087e57829003601f168201915b505050505081526020016004820160009054906101000a900460ff1615151515815250508383815181106108d2576108d1610fa0565b5b602002602001018190525081806108e89061105e565b9250505b80806108f79061105e565b91505061063d565b5060008167ffffffffffffffff81111561091c5761091b610d65565b5b60405190808252806020026020018201604052801561095557816020015b610942610a9a565b81526020019060019003908161093a5790505b50905060005b828110156109af5783818151811061097657610975610fa0565b5b602002602001015182828151811061099157610990610fa0565b5b602002602001018190525080806109a79061105e565b91505061095b565b5080935050505090565b3373ffffffffffffffffffffffffffffffffffffffff166001600084815260200190815260200160002060009054906101000a900473ffffffffffffffffffffffffffffffffffffffff1673ffffffffffffffffffffffffffffffffffffffff1603610a96578060008381548110610a3457610a33610fa0565b5b906000526020600020906005020160040160006101000a81548160ff0219169083151502179055507f2430f837dd2fb40e08c064be9db3d0cf2a7a21f8fe716a2a41787dafc66a7e2a8282604051610a8d92919061137a565b60405180910390a15b5050565b6040518060a0016040528060008152602001600073ffffffffffffffffffffffffffffffffffffffff16815260200160608152602001606081526020016000151581525090565b600081519050919050565b600082825260208201905092915050565b6000819050602082019050919050565b6000819050919050565b610b2081610b0d565b82525050565b600073ffffffffffffffffffffffffffffffffffffffff82169050919050565b6000610b5182610b26565b9050919050565b610b6181610b46565b82525050565b600081519050919050565b600082825260208201905092915050565b60005b83811015610ba1578082015181840152602081019050610b86565b60008484015250505050565b6000601f19601f8301169050919050565b6000610bc982610b67565b610bd38185610b72565b9350610be3818560208601610b83565b610bec81610bad565b840191505092915050565b60008115159050919050565b610c0c81610bf7565b82525050565b600060a083016000830151610c2a6000860182610b17565b506020830151610c3d6020860182610b58565b5060408301518482036040860152610c558282610bbe565b91505060608301518482036060860152610c6f8282610bbe565b9150506080830151610c846080860182610c03565b508091505092915050565b6000610c9b8383610c12565b905092915050565b6000602082019050919050565b6000610cbb82610ae1565b610cc58185610aec565b935083602082028501610cd785610afd565b8060005b85811015610d135784840389528151610cf48582610c8f565b9450610cff83610ca3565b925060208a01995050600181019050610cdb565b50829750879550505050505092915050565b60006020820190508181036000830152610d3f8184610cb0565b905092915050565b6000604051905090565b600080fd5b600080fd5b600080fd5b600080fd5b7f4e487b7100000000000000000000000000000000000000000000000000000000600052604160045260246000fd5b610d9d82610bad565b810181811067ffffffffffffffff82111715610dbc57610dbb610d65565b5b80604052505050565b6000610dcf610d47565b9050610ddb8282610d94565b919050565b600067ffffffffffffffff821115610dfb57610dfa610d65565b5b610e0482610bad565b9050602081019050919050565b82818337600083830152505050565b6000610e33610e2e84610de0565b610dc5565b905082815260208101848484011115610e4f57610e4e610d60565b5b610e5a848285610e11565b509392505050565b600082601f830112610e7757610e76610d5b565b5b8135610e87848260208601610e20565b91505092915050565b60008060408385031215610ea757610ea6610d51565b5b600083013567ffffffffffffffff811115610ec557610ec4610d56565b5b610ed185828601610e62565b925050602083013567ffffffffffffffff811115610ef257610ef1610d56565b5b610efe85828601610e62565b9150509250929050565b610f1181610b0d565b8114610f1c57600080fd5b50565b600081359050610f2e81610f08565b92915050565b610f3d81610bf7565b8114610f4857600080fd5b50565b600081359050610f5a81610f34565b92915050565b60008060408385031215610f7757610f76610d51565b5b6000610f8585828601610f1f565b9250506020610f9685828601610f4b565b9150509250929050565b7f4e487b7100000000000000000000000000000000000000000000000000000000600052603260045260246000fd5b7f4e487b7100000000000000000000000000000000000000000000000000000000600052602260045260246000fd5b6000600282049050600182168061101657607f821691505b60208210810361102957611028610fcf565b5b50919050565b7f4e487b7100000000000000000000000000000000000000000000000000000000600052601160045260246000fd5b600061106982610b0d565b91507fffffffffffffffffffffffffffffffffffffffffffffffffffffffffffffffff820361109b5761109a61102f565b5b600182019050919050565b60008190508160005260206000209050919050565b60006020601f8301049050919050565b600082821b905092915050565b6000600883026111087fffffffffffffffffffffffffffffffffffffffffffffffffffffffffffffffff826110cb565b61111286836110cb565b95508019841693508086168417925050509392505050565b6000819050919050565b600061114f61114a61114584610b0d565b61112a565b610b0d565b9050919050565b6000819050919050565b61116983611134565b61117d61117582611156565b8484546110d8565b825550505050565b600090565b611192611185565b61119d818484611160565b505050565b5b818110156111c1576111b660008261118a565b6001810190506111a3565b5050565b601f821115611206576111d7816110a6565b6111e0846110bb565b810160208510156111ef578190505b6112036111fb856110bb565b8301826111a2565b50505b505050565b600082821c905092915050565b60006112296000198460080261120b565b1980831691505092915050565b60006112428383611218565b9150826002028217905092915050565b61125b82610b67565b67ffffffffffffffff81111561127457611273610d65565b5b61127e8254610ffe565b6112898282856111c5565b600060209050601f8311600181146112bc57600084156112aa578287015190505b6112b48582611236565b86555061131c565b601f1984166112ca866110a6565b60005b828110156112f2578489015182556001820191506020850194506020810190506112cd565b8683101561130f578489015161130b601f891682611218565b8355505b6001600288020188555050505b505050505050565b61132d81610b46565b82525050565b61133c81610b0d565b82525050565b60006040820190506113576000830185611324565b6113646020830184611333565b9392505050565b61137481610bf7565b82525050565b600060408201905061138f6000830185611333565b61139c602083018461136b565b939250505056fea2646970667358221220fd2f436379a6f6a3a5ad0737b648e5f3119a49861d14a04ea79ca70c1824186e64736f6c63430008130033",
  "immutableReferences": {},
  "source": "// SPDX-License-Identifier: GPL-3.0\n\npragma solidity >=0.4.22 <0.9.0;\n\n/**\n * @title Twitter Contract\n * @dev Store & retrieve value in a variable\n */\ncontract TwitterContract {\n\n    event AddTweet(address recipient, uint tweetId);\n    event DeleteTweet(uint tweetId, bool isDeleted);\n\n    struct Tweet {\n        uint id;\n        address author;\n        string tweetText;\n        string tweetImage;\n        bool isDeleted;\n    }\n\n    Tweet[] private tweets;\n\n    // Mapping of Tweet id to the wallet address of the user\n    mapping(uint256 => address) tweetToOwner;\n\n    // Method to be called by our frontend when trying to add a new Tweet\n    function addTweet(string memory tweetText, string memory tweetImage) external {\n        uint tweetId = tweets.length;\n        tweets.push(Tweet(tweetId, msg.sender, tweetText, tweetImage, false));\n        tweetToOwner[tweetId] = msg.sender;\n        emit AddTweet(msg.sender, tweetId);\n    }\n\n    // Method to get all the Tweets\n    function getAllTweets() external view returns (Tweet[] memory) {\n        Tweet[] memory temporary = new Tweet[](tweets.length);\n        uint counter = 0;\n        for(uint i=0; i<tweets.length; i++) {\n            if(tweets[i].isDeleted == false) {\n                temporary[counter] = tweets[i];\n                counter++;\n            }\n        }\n\n        Tweet[] memory result = new Tweet[](counter);\n        for(uint i=0; i<counter; i++) {\n            result[i] = temporary[i];\n        }\n        return result;\n    }\n\n    // Method to get only your Tweets\n    function getMyTweets() external view returns (Tweet[] memory) {\n        Tweet[] memory temporary = new Tweet[](tweets.length);\n        uint counter = 0;\n        for(uint i=0; i<tweets.length; i++) {\n            if(tweetToOwner[i] == msg.sender && tweets[i].isDeleted == false) {\n                temporary[counter] = tweets[i];\n                counter++;\n            }\n        }\n\n        Tweet[] memory result = new Tweet[](counter);\n        for(uint i=0; i<counter; i++) {\n            result[i] = temporary[i];\n        }\n        return result;\n    }\n\n    // Method to Delete a Tweet\n    function deleteTweet(uint tweetId, bool isDeleted) external {\n        if(tweetToOwner[tweetId] == msg.sender) {\n            tweets[tweetId].isDeleted = isDeleted;\n            emit DeleteTweet(tweetId, isDeleted);\n        }\n    }\n\n}\n",
  "sourcePath": "/Users/antonioparraga/twitter-web3-smartcontract/contracts/TwitterContract.sol",
  "compiler": {
    "name": "solc",
    "version": "0.8.19+commit.7dd6d404.Darwin.appleclang"
  },
  "schemaVersion": "3.4.12",
  "updatedAt": "2023-03-02T18:36:02.703Z",
  "networkType": "ethereum",
  "devdoc": {
    "details": "Store & retrieve value in a variable",
    "kind": "dev",
    "methods": {},
    "title": "Twitter Contract",
    "version": 1
  },
  "userdoc": {
    "kind": "user",
    "methods": {},
    "version": 1
  }
}