{
  "contractName": "TwitterContract",
  "abi": [
    {
      "anonymous": false,
      "inputs": [
        {
          "indexed": false,
          "internalType": "address",
          "name": "recipient",
          "type": "address"
        },
        {
          "indexed": false,
          "internalType": "uint256",
          "name": "tweetId",
          "type": "uint256"
        }
      ],
      "name": "AddTweet",
      "type": "event"
    },
    {
      "anonymous": false,
      "inputs": [
        {
          "indexed": false,
          "internalType": "uint256",
          "name": "tweetId",
          "type": "uint256"
        },
        {
          "indexed": false,
          "internalType": "bool",
          "name": "isDeleted",
          "type": "bool"
        }
      ],
      "name": "DeleteTweet",
      "type": "event"
    },
    {
      "inputs": [
        {
          "internalType": "string",
          "name": "tweetText",
          "type": "string"
        },
        {
          "internalType": "bool",
          "name": "isDeleted",
          "type": "bool"
        }
      ],
      "name": "addTweet",
      "outputs": [],
      "stateMutability": "nonpayable",
      "type": "function"
    },
    {
      "inputs": [],
      "name": "getAllTweets",
      "outputs": [
        {
          "components": [
            {
              "internalType": "uint256",
              "name": "id",
              "type": "uint256"
            },
            {
              "internalType": "address",
              "name": "author",
              "type": "address"
            },
            {
              "internalType": "string",
              "name": "tweetText",
              "type": "string"
            },
            {
              "internalType": "bool",
              "name": "isDeleted",
              "type": "bool"
            }
          ],
          "internalType": "struct TwitterContract.Tweet[]",
          "name": "",
          "type": "tuple[]"
        }
      ],
      "stateMutability": "view",
      "type": "function",
      "constant": true
    },
    {
      "inputs": [],
      "name": "getMyTweets",
      "outputs": [
        {
          "components": [
            {
              "internalType": "uint256",
              "name": "id",
              "type": "uint256"
            },
            {
              "internalType": "address",
              "name": "author",
              "type": "address"
            },
            {
              "internalType": "string",
              "name": "tweetText",
              "type": "string"
            },
            {
              "internalType": "bool",
              "name": "isDeleted",
              "type": "bool"
            }
          ],
          "internalType": "struct TwitterContract.Tweet[]",
          "name": "",
          "type": "tuple[]"
        }
      ],
      "stateMutability": "view",
      "type": "function",
      "constant": true
    },
    {
      "inputs": [
        {
          "internalType": "uint256",
          "name": "tweetId",
          "type": "uint256"
        },
        {
          "internalType": "bool",
          "name": "isDeleted",
          "type": "bool"
        }
      ],
      "name": "deleteTweet",
      "outputs": [],
      "stateMutability": "nonpayable",
      "type": "function"
    }
  ],
  "bytecode": "0x608060405234801561001057600080fd5b5061125b806100206000396000f3fe608060405234801561001057600080fd5b506004361061004c5760003560e01c80635325613514610051578063aefedbc21461006f578063e580339f1461008d578063f0312a37146100a9575b600080fd5b6100596100c5565b6040516100669190610bc3565b60405180910390f35b6100776103a6565b6040516100849190610bc3565b60405180910390f35b6100a760048036038101906100a29190610d5a565b6106f2565b005b6100c360048036038101906100be9190610de2565b610878565b005b60606000808054905067ffffffffffffffff8111156100e7576100e6610c03565b5b60405190808252806020026020018201604052801561012057816020015b61010d610959565b8152602001906001900390816101055790505b5090506000805b6000805490508110156102ec57600015156000828154811061014c5761014b610e22565b5b906000526020600020906004020160030160009054906101000a900460ff161515036102d9576000818154811061018657610185610e22565b5b9060005260206000209060040201604051806080016040529081600082015481526020016001820160009054906101000a900473ffffffffffffffffffffffffffffffffffffffff1673ffffffffffffffffffffffffffffffffffffffff1673ffffffffffffffffffffffffffffffffffffffff16815260200160028201805461020f90610e80565b80601f016020809104026020016040519081016040528092919081815260200182805461023b90610e80565b80156102885780601f1061025d57610100808354040283529160200191610288565b820191906000526020600020905b81548152906001019060200180831161026b57829003601f168201915b505050505081526020016003820160009054906101000a900460ff1615151515815250508383815181106102bf576102be610e22565b5b602002602001018190525081806102d590610ee0565b9250505b80806102e490610ee0565b915050610127565b5060008167ffffffffffffffff81111561030957610308610c03565b5b60405190808252806020026020018201604052801561034257816020015b61032f610959565b8152602001906001900390816103275790505b50905060005b8281101561039c5783818151811061036357610362610e22565b5b602002602001015182828151811061037e5761037d610e22565b5b6020026020010181905250808061039490610ee0565b915050610348565b5080935050505090565b60606000808054905067ffffffffffffffff8111156103c8576103c7610c03565b5b60405190808252806020026020018201604052801561040157816020015b6103ee610959565b8152602001906001900390816103e65790505b5090506000805b600080549050811015610638573373ffffffffffffffffffffffffffffffffffffffff166001600083815260200190815260200160002060009054906101000a900473ffffffffffffffffffffffffffffffffffffffff1673ffffffffffffffffffffffffffffffffffffffff161480156104b95750600015156000828154811061049657610495610e22565b5b906000526020600020906004020160030160009054906101000a900460ff161515145b1561062557600081815481106104d2576104d1610e22565b5b9060005260206000209060040201604051806080016040529081600082015481526020016001820160009054906101000a900473ffffffffffffffffffffffffffffffffffffffff1673ffffffffffffffffffffffffffffffffffffffff1673ffffffffffffffffffffffffffffffffffffffff16815260200160028201805461055b90610e80565b80601f016020809104026020016040519081016040528092919081815260200182805461058790610e80565b80156105d45780601f106105a9576101008083540402835291602001916105d4565b820191906000526020600020905b8154815290600101906020018083116105b757829003601f168201915b505050505081526020016003820160009054906101000a900460ff16151515158152505083838151811061060b5761060a610e22565b5b6020026020010181905250818061062190610ee0565b9250505b808061063090610ee0565b915050610408565b5060008167ffffffffffffffff81111561065557610654610c03565b5b60405190808252806020026020018201604052801561068e57816020015b61067b610959565b8152602001906001900390816106735790505b50905060005b828110156106e8578381815181106106af576106ae610e22565b5b60200260200101518282815181106106ca576106c9610e22565b5b602002602001018190525080806106e090610ee0565b915050610694565b5080935050505090565b600080805490509050600060405180608001604052808381526020013373ffffffffffffffffffffffffffffffffffffffff16815260200185815260200184151581525090806001815401808255809150506001900390600052602060002090600402016000909190919091506000820151816000015560208201518160010160006101000a81548173ffffffffffffffffffffffffffffffffffffffff021916908373ffffffffffffffffffffffffffffffffffffffff16021790555060408201518160020190816107c591906110d4565b5060608201518160030160006101000a81548160ff0219169083151502179055505050336001600083815260200190815260200160002060006101000a81548173ffffffffffffffffffffffffffffffffffffffff021916908373ffffffffffffffffffffffffffffffffffffffff1602179055507f8b2db9b424f26463510ef5b02c16f2465836b52081b51d2112ec76102053bdea338260405161086b9291906111c4565b60405180910390a1505050565b3373ffffffffffffffffffffffffffffffffffffffff166001600084815260200190815260200160002060009054906101000a900473ffffffffffffffffffffffffffffffffffffffff1673ffffffffffffffffffffffffffffffffffffffff16036109555780600083815481106108f3576108f2610e22565b5b906000526020600020906004020160030160006101000a81548160ff0219169083151502179055507f2430f837dd2fb40e08c064be9db3d0cf2a7a21f8fe716a2a41787dafc66a7e2a828260405161094c9291906111fc565b60405180910390a15b5050565b604051806080016040528060008152602001600073ffffffffffffffffffffffffffffffffffffffff168152602001606081526020016000151581525090565b600081519050919050565b600082825260208201905092915050565b6000819050602082019050919050565b6000819050919050565b6109d8816109c5565b82525050565b600073ffffffffffffffffffffffffffffffffffffffff82169050919050565b6000610a09826109de565b9050919050565b610a19816109fe565b82525050565b600081519050919050565b600082825260208201905092915050565b60005b83811015610a59578082015181840152602081019050610a3e565b60008484015250505050565b6000601f19601f8301169050919050565b6000610a8182610a1f565b610a8b8185610a2a565b9350610a9b818560208601610a3b565b610aa481610a65565b840191505092915050565b60008115159050919050565b610ac481610aaf565b82525050565b6000608083016000830151610ae260008601826109cf565b506020830151610af56020860182610a10565b5060408301518482036040860152610b0d8282610a76565b9150506060830151610b226060860182610abb565b508091505092915050565b6000610b398383610aca565b905092915050565b6000602082019050919050565b6000610b5982610999565b610b6381856109a4565b935083602082028501610b75856109b5565b8060005b85811015610bb15784840389528151610b928582610b2d565b9450610b9d83610b41565b925060208a01995050600181019050610b79565b50829750879550505050505092915050565b60006020820190508181036000830152610bdd8184610b4e565b905092915050565b6000604051905090565b600080fd5b600080fd5b600080fd5b600080fd5b7f4e487b7100000000000000000000000000000000000000000000000000000000600052604160045260246000fd5b610c3b82610a65565b810181811067ffffffffffffffff82111715610c5a57610c59610c03565b5b80604052505050565b6000610c6d610be5565b9050610c798282610c32565b919050565b600067ffffffffffffffff821115610c9957610c98610c03565b5b610ca282610a65565b9050602081019050919050565b82818337600083830152505050565b6000610cd1610ccc84610c7e565b610c63565b905082815260208101848484011115610ced57610cec610bfe565b5b610cf8848285610caf565b509392505050565b600082601f830112610d1557610d14610bf9565b5b8135610d25848260208601610cbe565b91505092915050565b610d3781610aaf565b8114610d4257600080fd5b50565b600081359050610d5481610d2e565b92915050565b60008060408385031215610d7157610d70610bef565b5b600083013567ffffffffffffffff811115610d8f57610d8e610bf4565b5b610d9b85828601610d00565b9250506020610dac85828601610d45565b9150509250929050565b610dbf816109c5565b8114610dca57600080fd5b50565b600081359050610ddc81610db6565b92915050565b60008060408385031215610df957610df8610bef565b5b6000610e0785828601610dcd565b9250506020610e1885828601610d45565b9150509250929050565b7f4e487b7100000000000000000000000000000000000000000000000000000000600052603260045260246000fd5b7f4e487b7100000000000000000000000000000000000000000000000000000000600052602260045260246000fd5b60006002820490506001821680610e9857607f821691505b602082108103610eab57610eaa610e51565b5b50919050565b7f4e487b7100000000000000000000000000000000000000000000000000000000600052601160045260246000fd5b6000610eeb826109c5565b91507fffffffffffffffffffffffffffffffffffffffffffffffffffffffffffffffff8203610f1d57610f1c610eb1565b5b600182019050919050565b60008190508160005260206000209050919050565b60006020601f8301049050919050565b600082821b905092915050565b600060088302610f8a7fffffffffffffffffffffffffffffffffffffffffffffffffffffffffffffffff82610f4d565b610f948683610f4d565b95508019841693508086168417925050509392505050565b6000819050919050565b6000610fd1610fcc610fc7846109c5565b610fac565b6109c5565b9050919050565b6000819050919050565b610feb83610fb6565b610fff610ff782610fd8565b848454610f5a565b825550505050565b600090565b611014611007565b61101f818484610fe2565b505050565b5b818110156110435761103860008261100c565b600181019050611025565b5050565b601f8211156110885761105981610f28565b61106284610f3d565b81016020851015611071578190505b61108561107d85610f3d565b830182611024565b50505b505050565b600082821c905092915050565b60006110ab6000198460080261108d565b1980831691505092915050565b60006110c4838361109a565b9150826002028217905092915050565b6110dd82610a1f565b67ffffffffffffffff8111156110f6576110f5610c03565b5b6111008254610e80565b61110b828285611047565b600060209050601f83116001811461113e576000841561112c578287015190505b61113685826110b8565b86555061119e565b601f19841661114c86610f28565b60005b828110156111745784890151825560018201915060208501945060208101905061114f565b86831015611191578489015161118d601f89168261109a565b8355505b6001600288020188555050505b505050505050565b6111af816109fe565b82525050565b6111be816109c5565b82525050565b60006040820190506111d960008301856111a6565b6111e660208301846111b5565b9392505050565b6111f681610aaf565b82525050565b600060408201905061121160008301856111b5565b61121e60208301846111ed565b939250505056fea2646970667358221220c0f8baeadb60ea61f218b8d78d311f39e283404a34c34ecd58d58324d9924a6864736f6c63430008130033",
  "immutableReferences": {},
  "source": "// SPDX-License-Identifier: GPL-3.0\n\npragma solidity >=0.4.22 <0.9.0;\n\n/**\n * @title Twitter Contract\n * @dev Store & retrieve value in a variable\n */\ncontract TwitterContract {\n\n    event AddTweet(address recipient, uint tweetId);\n    event DeleteTweet(uint tweetId, bool isDeleted);\n\n    struct Tweet {\n        uint id;\n        address author;\n        string tweetText;\n        bool isDeleted;\n    }\n\n    Tweet[] private tweets;\n\n    // Mapping of Tweet id to the wallet address of the user\n    mapping(uint256 => address) tweetToOwner;\n\n    // Method to be called by our frontend when trying to add a new Tweet\n    function addTweet(string memory tweetText, bool isDeleted) external {\n        uint tweetId = tweets.length;\n        tweets.push(Tweet(tweetId, msg.sender, tweetText, isDeleted));\n        tweetToOwner[tweetId] = msg.sender;\n        emit AddTweet(msg.sender, tweetId);\n    }\n\n    // Method to get all the Tweets\n    function getAllTweets() external view returns (Tweet[] memory) {\n        Tweet[] memory temporary = new Tweet[](tweets.length);\n        uint counter = 0;\n        for(uint i=0; i<tweets.length; i++) {\n            if(tweets[i].isDeleted == false) {\n                temporary[counter] = tweets[i];\n                counter++;\n            }\n        }\n\n        Tweet[] memory result = new Tweet[](counter);\n        for(uint i=0; i<counter; i++) {\n            result[i] = temporary[i];\n        }\n        return result;\n    }\n\n    // Method to get only your Tweets\n    function getMyTweets() external view returns (Tweet[] memory) {\n        Tweet[] memory temporary = new Tweet[](tweets.length);\n        uint counter = 0;\n        for(uint i=0; i<tweets.length; i++) {\n            if(tweetToOwner[i] == msg.sender && tweets[i].isDeleted == false) {\n                temporary[counter] = tweets[i];\n                counter++;\n            }\n        }\n\n        Tweet[] memory result = new Tweet[](counter);\n        for(uint i=0; i<counter; i++) {\n            result[i] = temporary[i];\n        }\n        return result;\n    }\n\n    // Method to Delete a Tweet\n    function deleteTweet(uint tweetId, bool isDeleted) external {\n        if(tweetToOwner[tweetId] == msg.sender) {\n            tweets[tweetId].isDeleted = isDeleted;\n            emit DeleteTweet(tweetId, isDeleted);\n        }\n    }\n\n}\n",
  "sourcePath": "/Users/antonioparraga/twitter-web3-smartcontract/contracts/TwitterContract.sol",
  "compiler": {
    "name": "solc",
    "version": "0.8.19+commit.7dd6d404.Darwin.appleclang"
  },
  "schemaVersion": "3.4.12",
  "updatedAt": "2023-02-23T17:34:25.778Z",
  "networkType": "ethereum",
  "devdoc": {
    "details": "Store & retrieve value in a variable",
    "kind": "dev",
    "methods": {},
    "title": "Twitter Contract",
    "version": 1
  },
  "userdoc": {
    "kind": "user",
    "methods": {},
    "version": 1
  }
}